{
	"_format": "hh-sol-artifact-1",
	"contractName": "RealEstate",
	"sourceName": "contracts/RealState.sol",
	"abi": [
		{
			"anonymous": false,
			"inputs": [
				{
					"indexed": true,
					"internalType": "uint256",
					"name": "id",
					"type": "uint256"
				},
				{
					"indexed": true,
					"internalType": "address",
					"name": "owner",
					"type": "address"
				},
				{
					"indexed": false,
					"internalType": "uint256",
					"name": "price",
					"type": "uint256"
				}
			],
			"name": "PropertyListed",
			"type": "event"
		},
		{
			"anonymous": false,
			"inputs": [
				{
					"indexed": true,
					"internalType": "uint256",
					"name": "id",
					"type": "uint256"
				},
				{
					"indexed": true,
					"internalType": "address",
					"name": "oldOwner",
					"type": "address"
				},
				{
					"indexed": true,
					"internalType": "address",
					"name": "newOwner",
					"type": "address"
				},
				{
					"indexed": false,
					"internalType": "uint256",
					"name": "price",
					"type": "uint256"
				}
			],
			"name": "PropertyResold",
			"type": "event"
		},
		{
			"anonymous": false,
			"inputs": [
				{
					"indexed": true,
					"internalType": "uint256",
					"name": "id",
					"type": "uint256"
				},
				{
					"indexed": true,
					"internalType": "address",
					"name": "oldOwner",
					"type": "address"
				},
				{
					"indexed": true,
					"internalType": "address",
					"name": "newOwner",
					"type": "address"
				},
				{
					"indexed": false,
					"internalType": "uint256",
					"name": "price",
					"type": "uint256"
				}
			],
			"name": "PropertySold",
			"type": "event"
		},
		{
			"anonymous": false,
			"inputs": [
				{
					"indexed": true,
					"internalType": "uint256",
					"name": "productId",
					"type": "uint256"
				},
				{
					"indexed": true,
					"internalType": "address",
					"name": "reviewer",
					"type": "address"
				},
				{
					"indexed": false,
					"internalType": "uint256",
					"name": "rating",
					"type": "uint256"
				},
				{
					"indexed": false,
					"internalType": "string",
					"name": "comment",
					"type": "string"
				}
			],
			"name": "ReviewAdded",
			"type": "event"
		},
		{
			"anonymous": false,
			"inputs": [
				{
					"indexed": true,
					"internalType": "uint256",
					"name": "productId",
					"type": "uint256"
				},
				{
					"indexed": true,
					"internalType": "uint256",
					"name": "reviewIndex",
					"type": "uint256"
				},
				{
					"indexed": true,
					"internalType": "address",
					"name": "liker",
					"type": "address"
				},
				{
					"indexed": false,
					"internalType": "uint256",
					"name": "likes",
					"type": "uint256"
				}
			],
			"name": "ReviewLiked",
			"type": "event"
		},
		{
			"inputs": [
				{
					"internalType": "uint256",
					"name": "productId",
					"type": "uint256"
				},
				{
					"internalType": "uint256",
					"name": "rating",
					"type": "uint256"
				},
				{
					"internalType": "string",
					"name": "comment",
					"type": "string"
				},
				{
					"internalType": "address",
					"name": "user",
					"type": "address"
				}
			],
			"name": "addReview",
			"outputs": [],
			"stateMutability": "nonpayable",
			"type": "function"
		},
		{
			"inputs": [
				{
					"internalType": "uint256",
					"name": "id",
					"type": "uint256"
				},
				{
					"internalType": "address",
					"name": "buyer",
					"type": "address"
				}
			],
			"name": "buyProperty",
			"outputs": [],
			"stateMutability": "payable",
			"type": "function"
		},
		{
			"inputs": [],
			"name": "getAllProperties",
			"outputs": [
				{
					"components": [
						{
							"internalType": "uint256",
							"name": "productID",
							"type": "uint256"
						},
						{
							"internalType": "address",
							"name": "owner",
							"type": "address"
						},
						{
							"internalType": "uint256",
							"name": "price",
							"type": "uint256"
						},
						{
							"internalType": "string",
							"name": "propertyTitle",
							"type": "string"
						},
						{
							"internalType": "string",
							"name": "category",
							"type": "string"
						},
						{
							"internalType": "string",
							"name": "images",
							"type": "string"
						},
						{
							"internalType": "string",
							"name": "propertyAddress",
							"type": "string"
						},
						{
							"internalType": "string",
							"name": "description",
							"type": "string"
						},
						{
							"internalType": "address[]",
							"name": "reviewers",
							"type": "address[]"
						},
						{
							"internalType": "string[]",
							"name": "reviews",
							"type": "string[]"
						}
					],
					"internalType": "struct RealEstate.Property[]",
					"name": "",
					"type": "tuple[]"
				}
			],
			"stateMutability": "view",
			"type": "function"
		},
		{
			"inputs": [],
			"name": "getHighestratedProduct",
			"outputs": [
				{
					"internalType": "uint256",
					"name": "",
					"type": "uint256"
				}
			],
			"stateMutability": "view",
			"type": "function"
		},
		{
			"inputs": [
				{
					"internalType": "uint256",
					"name": "productId",
					"type": "uint256"
				}
			],
			"name": "getProductReviews",
			"outputs": [
				{
					"components": [
						{
							"internalType": "address",
							"name": "reviewer",
							"type": "address"
						},
						{
							"internalType": "uint256",
							"name": "productId",
							"type": "uint256"
						},
						{
							"internalType": "uint256",
							"name": "rating",
							"type": "uint256"
						},
						{
							"internalType": "string",
							"name": "comment",
							"type": "string"
						},
						{
							"internalType": "uint256",
							"name": "likes",
							"type": "uint256"
						}
					],
					"internalType": "struct RealEstate.Review[]",
					"name": "",
					"type": "tuple[]"
				}
			],
			"stateMutability": "view",
			"type": "function"
		},
		{
			"inputs": [
				{
					"internalType": "uint256",
					"name": "id",
					"type": "uint256"
				}
			],
			"name": "getProperty",
			"outputs": [
				{
					"internalType": "uint256",
					"name": "",
					"type": "uint256"
				},
				{
					"internalType": "address",
					"name": "",
					"type": "address"
				},
				{
					"internalType": "uint256",
					"name": "",
					"type": "uint256"
				},
				{
					"internalType": "string",
					"name": "",
					"type": "string"
				},
				{
					"internalType": "string",
					"name": "",
					"type": "string"
				},
				{
					"internalType": "string",
					"name": "",
					"type": "string"
				},
				{
					"internalType": "string",
					"name": "",
					"type": "string"
				},
				{
					"internalType": "string",
					"name": "",
					"type": "string"
				}
			],
			"stateMutability": "view",
			"type": "function"
		},
		{
			"inputs": [
				{
					"internalType": "address",
					"name": "user",
					"type": "address"
				}
			],
			"name": "getUserProperties",
			"outputs": [
				{
					"components": [
						{
							"internalType": "uint256",
							"name": "productID",
							"type": "uint256"
						},
						{
							"internalType": "address",
							"name": "owner",
							"type": "address"
						},
						{
							"internalType": "uint256",
							"name": "price",
							"type": "uint256"
						},
						{
							"internalType": "string",
							"name": "propertyTitle",
							"type": "string"
						},
						{
							"internalType": "string",
							"name": "category",
							"type": "string"
						},
						{
							"internalType": "string",
							"name": "images",
							"type": "string"
						},
						{
							"internalType": "string",
							"name": "propertyAddress",
							"type": "string"
						},
						{
							"internalType": "string",
							"name": "description",
							"type": "string"
						},
						{
							"internalType": "address[]",
							"name": "reviewers",
							"type": "address[]"
						},
						{
							"internalType": "string[]",
							"name": "reviews",
							"type": "string[]"
						}
					],
					"internalType": "struct RealEstate.Property[]",
					"name": "",
					"type": "tuple[]"
				}
			],
			"stateMutability": "view",
			"type": "function"
		},
		{
			"inputs": [
				{
					"internalType": "address",
					"name": "user",
					"type": "address"
				}
			],
			"name": "getUserReviews",
			"outputs": [
				{
					"components": [
						{
							"internalType": "address",
							"name": "reviewer",
							"type": "address"
						},
						{
							"internalType": "uint256",
							"name": "productId",
							"type": "uint256"
						},
						{
							"internalType": "uint256",
							"name": "rating",
							"type": "uint256"
						},
						{
							"internalType": "string",
							"name": "comment",
							"type": "string"
						},
						{
							"internalType": "uint256",
							"name": "likes",
							"type": "uint256"
						}
					],
					"internalType": "struct RealEstate.Review[]",
					"name": "",
					"type": "tuple[]"
				}
			],
			"stateMutability": "view",
			"type": "function"
		},
		{
			"inputs": [
				{
					"internalType": "uint256",
					"name": "productId",
					"type": "uint256"
				},
				{
					"internalType": "uint256",
					"name": "reviewIndex",
					"type": "uint256"
				},
				{
					"internalType": "address",
					"name": "user",
					"type": "address"
				}
			],
			"name": "likeReview",
			"outputs": [],
			"stateMutability": "nonpayable",
			"type": "function"
		},
		{
			"inputs": [
				{
					"internalType": "address",
					"name": "owner",
					"type": "address"
				},
				{
					"internalType": "uint256",
					"name": "price",
					"type": "uint256"
				},
				{
					"internalType": "string",
					"name": "_propertyTitle",
					"type": "string"
				},
				{
					"internalType": "string",
					"name": "_category",
					"type": "string"
				},
				{
					"internalType": "string",
					"name": "_images",
					"type": "string"
				},
				{
					"internalType": "string",
					"name": "_propertyAddress",
					"type": "string"
				},
				{
					"internalType": "string",
					"name": "_description",
					"type": "string"
				}
			],
			"name": "listProperty",
			"outputs": [
				{
					"internalType": "uint256",
					"name": "",
					"type": "uint256"
				}
			],
			"stateMutability": "nonpayable",
			"type": "function"
		},
		{
			"inputs": [],
			"name": "propertyIndex",
			"outputs": [
				{
					"internalType": "uint256",
					"name": "",
					"type": "uint256"
				}
			],
			"stateMutability": "view",
			"type": "function"
		},
		{
			"inputs": [],
			"name": "reviewsCounter",
			"outputs": [
				{
					"internalType": "uint256",
					"name": "",
					"type": "uint256"
				}
			],
			"stateMutability": "view",
			"type": "function"
		},
		{
			"inputs": [
				{
					"internalType": "address",
					"name": "owner",
					"type": "address"
				},
				{
					"internalType": "uint256",
					"name": "price",
					"type": "uint256"
				},
				{
					"internalType": "uint256",
					"name": "productId",
					"type": "uint256"
				}
			],
			"name": "updatePrice",
			"outputs": [
				{
					"internalType": "string",
					"name": "",
					"type": "string"
				}
			],
			"stateMutability": "nonpayable",
			"type": "function"
		},
		{
			"inputs": [
				{
					"internalType": "address",
					"name": "owner",
					"type": "address"
				},
				{
					"internalType": "uint256",
					"name": "productId",
					"type": "uint256"
				},
				{
					"internalType": "string",
					"name": "_propertyTitle",
					"type": "string"
				},
				{
					"internalType": "string",
					"name": "_category",
					"type": "string"
				},
				{
					"internalType": "string",
					"name": "_images",
					"type": "string"
				},
				{
					"internalType": "string",
					"name": "_propertyAddress",
					"type": "string"
				},
				{
					"internalType": "string",
					"name": "_description",
					"type": "string"
				}
			],
			"name": "updateProperty",
			"outputs": [
				{
					"internalType": "uint256",
					"name": "",
					"type": "uint256"
				}
			],
			"stateMutability": "nonpayable",
			"type": "function"
		}
	],
	"bytecode": "0x608060405234801561001057600080fd5b5061276b806100206000396000f3fe6080604052600436106100dd5760003560e01c8063707893081161007f578063ca6445af11610059578063ca6445af1461023c578063dc035e6d1461025c578063e57d6fb71461027c578063f56720b5146102a957600080fd5b806370789308146101f1578063844ce562146102115780639e92a6941461022757600080fd5b80633b3bfa15116100bb5780633b3bfa15146101795780633d51402c146101a757806346a4237b146101bc57806357a64bde146101dc57600080fd5b8063060a3e61146100e257806318d0e8b21461011857806332665ffb14610145575b600080fd5b3480156100ee57600080fd5b506101026100fd366004611ff5565b6102bf565b60405161010f91906120fa565b60405180910390f35b34801561012457600080fd5b50610138610133366004611ff5565b610882565b60405161010f9190612237565b34801561015157600080fd5b506101656101603660046122cc565b610b5f565b60405161010f9897969594939291906122e5565b34801561018557600080fd5b50610199610194366004612419565b61100c565b60405190815260200161010f565b3480156101b357600080fd5b50610102611109565b3480156101c857600080fd5b506101386101d73660046122cc565b61161f565b3480156101e857600080fd5b50610199611758565b3480156101fd57600080fd5b5061019961020c366004612419565b6117df565b34801561021d57600080fd5b5061019960055481565b61023a610235366004612505565b61193d565b005b34801561024857600080fd5b5061023a610257366004612531565b611ab6565b34801561026857600080fd5b5061023a6102773660046125c8565b611d2c565b34801561028857600080fd5b5061029c6102973660046125fd565b611dc5565b60405161010f9190612630565b3480156102b557600080fd5b5061019960015481565b600154606090600080805b8381101561032d576001600160a01b0386166000806102ea846001612659565b81526020810191909152604001600020600101546001600160a01b0316141561031b57610318600184612659565b92505b8061032581612671565b9150506102ca565b5060008267ffffffffffffffff81111561034957610349612376565b60405190808252806020026020018201604052801561038257816020015b61036f611e70565b8152602001906001900390816103675790505b50905060005b84811015610878576001600160a01b0387166000806103a8846001612659565b81526020810191909152604001600020600101546001600160a01b031614156108665760006103d8826001612659565b600081815260208181526040918290208251610140810184528154815260018201546001600160a01b0316928101929092526002810154928201929092526003820180549394509192909183916060840191906104349061268c565b80601f01602080910402602001604051908101604052809291908181526020018280546104609061268c565b80156104ad5780601f10610482576101008083540402835291602001916104ad565b820191906000526020600020905b81548152906001019060200180831161049057829003601f168201915b505050505081526020016004820180546104c69061268c565b80601f01602080910402602001604051908101604052809291908181526020018280546104f29061268c565b801561053f5780601f106105145761010080835404028352916020019161053f565b820191906000526020600020905b81548152906001019060200180831161052257829003601f168201915b505050505081526020016005820180546105589061268c565b80601f01602080910402602001604051908101604052809291908181526020018280546105849061268c565b80156105d15780601f106105a6576101008083540402835291602001916105d1565b820191906000526020600020905b8154815290600101906020018083116105b457829003601f168201915b505050505081526020016006820180546105ea9061268c565b80601f01602080910402602001604051908101604052809291908181526020018280546106169061268c565b80156106635780601f1061063857610100808354040283529160200191610663565b820191906000526020600020905b81548152906001019060200180831161064657829003601f168201915b5050505050815260200160078201805461067c9061268c565b80601f01602080910402602001604051908101604052809291908181526020018280546106a89061268c565b80156106f55780601f106106ca576101008083540402835291602001916106f5565b820191906000526020600020905b8154815290600101906020018083116106d857829003601f168201915b505050505081526020016008820180548060200260200160405190810160405280929190818152602001828054801561075757602002820191906000526020600020905b81546001600160a01b03168152600190910190602001808311610739575b5050505050815260200160098201805480602002602001604051908101604052809291908181526020016000905b828210156108315783829060005260206000200180546107a49061268c565b80601f01602080910402602001604051908101604052809291908181526020018280546107d09061268c565b801561081d5780601f106107f25761010080835404028352916020019161081d565b820191906000526020600020905b81548152906001019060200180831161080057829003601f168201915b505050505081526020019060010190610785565b505050508152505084868151811061084b5761084b6126c7565b6020908102919091010152610861600186612659565b945050505b8061087081612671565b915050610388565b5095945050505050565b6001600160a01b0381166000908152600360205260408120546060918167ffffffffffffffff8111156108b7576108b7612376565b60405190808252806020026020018201604052801561092357816020015b6109106040518060a0016040528060006001600160a01b03168152602001600081526020016000815260200160608152602001600081525090565b8152602001906001900390816108d55790505b50905060005b6001600160a01b038516600090815260036020526040902054811015610b57576001600160a01b0385166000908152600360205260408120805483908110610973576109736126c7565b90600052602060002001549050600060026000838152602001908152602001600020805480602002602001604051908101604052809291908181526020016000905b82821015610aae5760008481526020908190206040805160a0810182526005860290920180546001600160a01b03168352600181015493830193909352600283015490820152600382018054919291606084019190610a139061268c565b80601f0160208091040260200160405190810160405280929190818152602001828054610a3f9061268c565b8015610a8c5780601f10610a6157610100808354040283529160200191610a8c565b820191906000526020600020905b815481529060010190602001808311610a6f57829003601f168201915b50505050508152602001600482015481525050815260200190600101906109b5565b50505050905060005b8151811015610b4157876001600160a01b0316828281518110610adc57610adc6126c7565b6020026020010151600001516001600160a01b03161415610b2f57818181518110610b0957610b096126c7565b6020026020010151858581518110610b2357610b236126c7565b60200260200101819052505b80610b3981612671565b915050610ab7565b5050508080610b4f90612671565b915050610929565b509392505050565b6000818152602081815260408083208151610140810183528154815260018201546001600160a01b03169381019390935260028101549183019190915260038101805484938493606093849384938493849389938386019190610bc19061268c565b80601f0160208091040260200160405190810160405280929190818152602001828054610bed9061268c565b8015610c3a5780601f10610c0f57610100808354040283529160200191610c3a565b820191906000526020600020905b815481529060010190602001808311610c1d57829003601f168201915b50505050508152602001600482018054610c539061268c565b80601f0160208091040260200160405190810160405280929190818152602001828054610c7f9061268c565b8015610ccc5780601f10610ca157610100808354040283529160200191610ccc565b820191906000526020600020905b815481529060010190602001808311610caf57829003601f168201915b50505050508152602001600582018054610ce59061268c565b80601f0160208091040260200160405190810160405280929190818152602001828054610d119061268c565b8015610d5e5780601f10610d3357610100808354040283529160200191610d5e565b820191906000526020600020905b815481529060010190602001808311610d4157829003601f168201915b50505050508152602001600682018054610d779061268c565b80601f0160208091040260200160405190810160405280929190818152602001828054610da39061268c565b8015610df05780601f10610dc557610100808354040283529160200191610df0565b820191906000526020600020905b815481529060010190602001808311610dd357829003601f168201915b50505050508152602001600782018054610e099061268c565b80601f0160208091040260200160405190810160405280929190818152602001828054610e359061268c565b8015610e825780601f10610e5757610100808354040283529160200191610e82565b820191906000526020600020905b815481529060010190602001808311610e6557829003601f168201915b5050505050815260200160088201805480602002602001604051908101604052809291908181526020018280548015610ee457602002820191906000526020600020905b81546001600160a01b03168152600190910190602001808311610ec6575b5050505050815260200160098201805480602002602001604051908101604052809291908181526020016000905b82821015610fbe578382906000526020600020018054610f319061268c565b80601f0160208091040260200160405190810160405280929190818152602001828054610f5d9061268c565b8015610faa5780601f10610f7f57610100808354040283529160200191610faa565b820191906000526020600020905b815481529060010190602001808311610f8d57829003601f168201915b505050505081526020019060010190610f12565b50505050815250509050806000015181602001518260400151836060015184608001518560a001518660c001518760e001519850985098509850985098509850985050919395975091939597565b600086815260208190526040812060018101546001600160a01b038a811691161461108e5760405162461bcd60e51b815260206004820152602760248201527f596f7520617265206e6f7420746865206f776e6e6572206f6620746869732070604482015266726f706572747960c81b60648201526084015b60405180910390fd5b86516110a390600383019060208a0190611ecc565b5085516110b99060048301906020890190611ecc565b5084516110cf9060058301906020880190611ecc565b5083516110e59060068301906020870190611ecc565b5082516110fb9060078301906020860190611ecc565b509698975050505050505050565b6001546060906000808267ffffffffffffffff81111561112b5761112b612376565b60405190808252806020026020018201604052801561116457816020015b611151611e70565b8152602001906001900390816111495790505b50905060005b83811015610b5757600061117f826001612659565b600081815260208181526040918290208251610140810184528154815260018201546001600160a01b0316928101929092526002810154928201929092526003820180549394509192909183916060840191906111db9061268c565b80601f01602080910402602001604051908101604052809291908181526020018280546112079061268c565b80156112545780601f1061122957610100808354040283529160200191611254565b820191906000526020600020905b81548152906001019060200180831161123757829003601f168201915b5050505050815260200160048201805461126d9061268c565b80601f01602080910402602001604051908101604052809291908181526020018280546112999061268c565b80156112e65780601f106112bb576101008083540402835291602001916112e6565b820191906000526020600020905b8154815290600101906020018083116112c957829003601f168201915b505050505081526020016005820180546112ff9061268c565b80601f016020809104026020016040519081016040528092919081815260200182805461132b9061268c565b80156113785780601f1061134d57610100808354040283529160200191611378565b820191906000526020600020905b81548152906001019060200180831161135b57829003601f168201915b505050505081526020016006820180546113919061268c565b80601f01602080910402602001604051908101604052809291908181526020018280546113bd9061268c565b801561140a5780601f106113df5761010080835404028352916020019161140a565b820191906000526020600020905b8154815290600101906020018083116113ed57829003601f168201915b505050505081526020016007820180546114239061268c565b80601f016020809104026020016040519081016040528092919081815260200182805461144f9061268c565b801561149c5780601f106114715761010080835404028352916020019161149c565b820191906000526020600020905b81548152906001019060200180831161147f57829003601f168201915b50505050508152602001600882018054806020026020016040519081016040528092919081815260200182805480156114fe57602002820191906000526020600020905b81546001600160a01b031681526001909101906020018083116114e0575b5050505050815260200160098201805480602002602001604051908101604052809291908181526020016000905b828210156115d857838290600052602060002001805461154b9061268c565b80601f01602080910402602001604051908101604052809291908181526020018280546115779061268c565b80156115c45780601f10611599576101008083540402835291602001916115c4565b820191906000526020600020905b8154815290600101906020018083116115a757829003601f168201915b50505050508152602001906001019061152c565b50505050815250508486815181106115f2576115f26126c7565b6020908102919091010152611608600186612659565b94505050808061161790612671565b91505061116a565b606060026000838152602001908152602001600020805480602002602001604051908101604052809291908181526020016000905b8282101561174d5760008481526020908190206040805160a0810182526005860290920180546001600160a01b031683526001810154938301939093526002830154908201526003820180549192916060840191906116b29061268c565b80601f01602080910402602001604051908101604052809291908181526020018280546116de9061268c565b801561172b5780601f106117005761010080835404028352916020019161172b565b820191906000526020600020905b81548152906001019060200180831161170e57829003601f168201915b5050505050815260200160048201548152505081526020019060010190611654565b505050509050919050565b60008080805b6005548110156117d8576000611775826001612659565b600081815260046020526040902060020154909150156117c557600081815260046020526040812060028101546001909101546117b291906126dd565b9050848111156117c3578094508193505b505b50806117d081612671565b91505061175e565b5092915050565b60008087116118305760405162461bcd60e51b815260206004820152601c60248201527f5072696365206d7573742062652067726561746572207468616e2030000000006044820152606401611085565b600180546000918261184183612671565b909155506000818152602081815260409091208281556001810180546001600160a01b0319166001600160a01b038e16179055600281018b9055895192935091611893916003840191908b0190611ecc565b5085516118a99060058301906020890190611ecc565b5086516118bf90600483019060208a0190611ecc565b5084516118d59060068301906020880190611ecc565b5083516118eb9060078301906020870190611ecc565b50896001600160a01b0316827f23fb658c1698b92f5fe511a079c17ecf7965cbc3f1b873328c67e2c3c0820f1f8b60405161192891815260200190565b60405180910390a35098975050505050505050565b346001600160a01b0382163314156119975760405162461bcd60e51b815260206004820181905260248201527f796f752063616e6e6f742062757920796f7572206f776e2070726f70657274796044820152606401611085565b6000838152602081905260409020600201548110156119eb5760405162461bcd60e51b815260206004820152601060248201526f4e6f7420656e6f756768206d6f6e657960801b6044820152606401611085565b600083815260208190526040808220600181015491519092916001600160a01b03169084908381818185875af1925050503d8060008114611a48576040519150601f19603f3d011682016040523d82523d6000602084013e611a4d565b606091505b505090508015611aaf576001820180546001600160a01b0319166001600160a01b038616908117909155604051848152819087907fddd64180d9701c7ede08673ac8106484ff983a472929330d4fbde4e35d65cb069060200160405180910390a45b5050505050565b60018410158015611ac8575060058411155b611b145760405162461bcd60e51b815260206004820152601e60248201527f726174696e67206d757374206265206265747765656e203120616e64203500006044820152606401611085565b6000858152602081815260408220600881018054600180820183559185528385200180546001600160a01b0319166001600160a01b0387161790556009820180549182018155845291909220611b6c91018585611f50565b50600260008781526020019081526020016000206040518060a00160405280846001600160a01b0316815260200188815260200187815260200186868080601f0160208091040260200160405190810160405280939291908181526020018383808284376000920182905250938552505050602091820181905283546001808201865594825290829020835160059092020180546001600160a01b0319166001600160a01b0390921691909117815582820151938101939093556040820151600284015560608201518051929392611c4a9260038501920190611ecc565b50608091909101516004918201556001600160a01b0383166000908152600360209081526040808320805460018181018355918552838520018b90558a84529390915281209091018054879290611ca2908490612659565b90915550506000868152600460205260408120600201805491611cc483612671565b9190505550816001600160a01b0316867f4beb3faed0901f48c8eaa53db80247f723ddeb08676b6badb9ee2f191d1ac2df878787604051611d07939291906126ff565b60405180910390a360058054906000611d1f83612671565b9190505550505050505050565b6000838152600260205260408120805484908110611d4c57611d4c6126c7565b90600052602060002090600502019050806004016000815480929190611d7190612671565b9190505550816001600160a01b031683857fc58deae63c2d94e1502a392380f59901dc4cd3c3bbc40308b6189decf09671d58460040154604051611db791815260200190565b60405180910390a450505050565b60008181526020819052604090206001810154606091906001600160a01b03868116911614611e2e5760405162461bcd60e51b81526020600482015260156024820152743cb7ba9030b932903737ba103a34329037bbb732b960591b6044820152606401611085565b6002018390555060408051808201909152601e81527f796f75722070726f70657274792070726963652069732075706461746564000060208201529392505050565b6040518061014001604052806000815260200160006001600160a01b0316815260200160008152602001606081526020016060815260200160608152602001606081526020016060815260200160608152602001606081525090565b828054611ed89061268c565b90600052602060002090601f016020900481019282611efa5760008555611f40565b82601f10611f1357805160ff1916838001178555611f40565b82800160010185558215611f40579182015b82811115611f40578251825591602001919060010190611f25565b50611f4c929150611fc4565b5090565b828054611f5c9061268c565b90600052602060002090601f016020900481019282611f7e5760008555611f40565b82601f10611f975782800160ff19823516178555611f40565b82800160010185558215611f40579182015b82811115611f40578235825591602001919060010190611fa9565b5b80821115611f4c5760008155600101611fc5565b80356001600160a01b0381168114611ff057600080fd5b919050565b60006020828403121561200757600080fd5b61201082611fd9565b9392505050565b6000815180845260005b8181101561203d57602081850181015186830182015201612021565b8181111561204f576000602083870101525b50601f01601f19169290920160200192915050565b600081518084526020808501945080840160005b8381101561209d5781516001600160a01b031687529582019590820190600101612078565b509495945050505050565b6000815180845260208085019450848260051b860182860160005b858110156120ed5783830389526120db838351612017565b988501989250908401906001016120c3565b5090979650505050505050565b60006020808301818452808551808352604092508286019150828160051b87010184880160005b8381101561222957888303603f19018552815180518452878101516001600160a01b0381168986015261014090508782015188860152606080830151828288015261216e83880182612017565b92505050608080830151868303828801526121898382612017565b9250505060a080830151868303828801526121a48382612017565b9250505060c080830151868303828801526121bf8382612017565b9250505060e080830151868303828801526121da8382612017565b9250505061010080830151868303828801526121f68382612064565b92505050610120808301519250858203818701525061221581836120a8565b968901969450505090860190600101612121565b509098975050505050505050565b60006020808301818452808551808352604092508286019150828160051b87010184880160005b8381101561222957888303603f19018552815180516001600160a01b031684528781015188850152868101518785015260608082015160a082870181905291906122aa83880182612017565b608094850151979094019690965250509487019492509086019060010161225e565b6000602082840312156122de57600080fd5b5035919050565b8881526001600160a01b0388166020820152604081018790526101006060820181905260009061231783820189612017565b9050828103608084015261232b8188612017565b905082810360a084015261233f8187612017565b905082810360c08401526123538186612017565b905082810360e08401526123678185612017565b9b9a5050505050505050505050565b634e487b7160e01b600052604160045260246000fd5b600082601f83011261239d57600080fd5b813567ffffffffffffffff808211156123b8576123b8612376565b604051601f8301601f19908116603f011681019082821181831017156123e0576123e0612376565b816040528381528660208588010111156123f957600080fd5b836020870160208301376000602085830101528094505050505092915050565b600080600080600080600060e0888a03121561243457600080fd5b61243d88611fd9565b965060208801359550604088013567ffffffffffffffff8082111561246157600080fd5b61246d8b838c0161238c565b965060608a013591508082111561248357600080fd5b61248f8b838c0161238c565b955060808a01359150808211156124a557600080fd5b6124b18b838c0161238c565b945060a08a01359150808211156124c757600080fd5b6124d38b838c0161238c565b935060c08a01359150808211156124e957600080fd5b506124f68a828b0161238c565b91505092959891949750929550565b6000806040838503121561251857600080fd5b8235915061252860208401611fd9565b90509250929050565b60008060008060006080868803121561254957600080fd5b8535945060208601359350604086013567ffffffffffffffff8082111561256f57600080fd5b818801915088601f83011261258357600080fd5b81358181111561259257600080fd5b8960208285010111156125a457600080fd5b6020830195508094505050506125bc60608701611fd9565b90509295509295909350565b6000806000606084860312156125dd57600080fd5b83359250602084013591506125f460408501611fd9565b90509250925092565b60008060006060848603121561261257600080fd5b61261b84611fd9565b95602085013595506040909401359392505050565b6020815260006120106020830184612017565b634e487b7160e01b600052601160045260246000fd5b6000821982111561266c5761266c612643565b500190565b600060001982141561268557612685612643565b5060010190565b600181811c908216806126a057607f821691505b602082108114156126c157634e487b7160e01b600052602260045260246000fd5b50919050565b634e487b7160e01b600052603260045260246000fd5b6000826126fa57634e487b7160e01b600052601260045260246000fd5b500490565b83815260406020820152816040820152818360608301376000818301606090810191909152601f909201601f191601019291505056fea264697066735822122034f0fbe686cfcdd7fbb7b1f40a244571bf5b01b4c726261eaa594fc131bb7fd864736f6c63430008090033",
	"linkReferences": {},
	"deployedLinkReferences": {}
}